:100000000C9435000C945D000C945D000C945D0024
:100010000C945D000C945D000C945D000C945D00EC
:100020000C945D000C945D000C945D000C945D00DC
:100030000C945D000C945D000C945D000C945D00CC
:100040000C949E010C945D000C940E020C94E8013B
:100050000C945D000C945D000C945D000C945D00AC
:100060000C945D000C945D00320311241FBECFEF91
:10007000D8E0DEBFCDBF11E0A0E0B1E0ECEDF8E0EC
:1000800002C005900D92A233B107D9F721E0A2E397
:10009000B1E001C01D92A83DB207E1F710E0C5E351
:1000A000D0E004C02197FE010E946604C433D1074A
:1000B000C9F70E9440020C946C040C9400003FB7F6
:1000C000F8948091370190913801A0913901B09155
:1000D0003A0126B5A89B05C02F3F19F00196A11D36
:1000E000B11D3FBFBA2FA92F982F8827BC01CD0182
:1000F000620F711D811D911D42E0660F771F881FE1
:10010000991F4A95D1F70895AF92BF92CF92DF928F
:10011000EF92FF920F931F93CF93DF936C017B01BC
:100120008B01040F151FEB015E01AE18BF08C0174D
:10013000D10759F06991D601ED91FC910190F081C0
:10014000E02DC6010995892B79F7C501DF91CF9183
:100150001F910F91FF90EF90DF90CF90BF90AF90E5
:100160000895FC01538D448D252F30E0842F90E0BD
:10017000821B930B541710F0CF96089501970895A2
:10018000FC01918D828D981761F0A28DAE0FBF2F6B
:10019000B11D5D968C91928D9F5F9F73928F90E0C1
:1001A00008958FEF9FEF0895FC01918D828D981730
:1001B00031F0828DE80FF11D858D90E008958FEF6D
:1001C0009FEF0895FC01918D228D892F90E0805C36
:1001D0009F4F821B91098F73992708958BE391E0BC
:1001E0000E94E20021E0892B09F420E0822F08958B
:1001F00080E090E0892B29F00E94EE0081110C94A0
:1002000000000895FC01A48DA80FB92FB11DA35AB9
:10021000BF4F2C91848D90E001968F739927848F26
:10022000A689B7892C93A089B1898C918370806449
:100230008C93938D848D981306C00288F389E02DEA
:1002400080818F7D80830895EF92FF920F931F939B
:10025000CF93DF93EC0181E0888F9B8D8C8D981379
:100260001AC0E889F989808185FF15C09FB7F89485
:10027000EE89FF896083E889F989808183708064D1
:1002800080839FBF81E090E0DF91CF911F910F911C
:10029000FF90EF900895F62E0B8D10E00F5F1F4F2B
:1002A0000F731127E02E8C8D8E110CC00FB607FC3A
:1002B000FACFE889F989808185FFF5CFCE010E94C8
:1002C0000201F1CFEB8DEC0FFD2FF11DE35AFF4F33
:1002D000F0829FB7F8940B8FEA89FB898081806256
:1002E000CFCFCF93DF93EC01888D8823B9F0AA8913
:1002F000BB89E889F9898C9185FD03C0808186FDE1
:100300000DC00FB607FCF7CF8C9185FFF2CF80812F
:1003100085FFEDCFCE010E940201E9CFDF91CF91A1
:100320000895FC0101900020E9F73197AF01481BC7
:10033000590BBC018BE391E00C9484001F920F9247
:100340000FB60F9211242F933F938F939F93AF93E8
:10035000BF938091330190913401A0913501B09108
:1003600036013091320123E0230F2D3758F50196E5
:10037000A11DB11D2093320180933301909334016C
:10038000A0933501B09336018091370190913801E7
:10039000A0913901B0913A010196A11DB11D809340
:1003A000370190933801A0933901B0933A01BF917E
:1003B000AF919F918F913F912F910F900FBE0F9012
:1003C0001F90189526E8230F0296A11DB11DD2CFCC
:1003D0001F920F920FB60F9211242F933F934F93BA
:1003E0005F936F937F938F939F93AF93BF93EF939D
:1003F000FF938BE391E00E940201FF91EF91BF9187
:10040000AF919F918F917F916F915F914F913F91AC
:100410002F910F900FBE0F901F9018951F920F9263
:100420000FB60F9211242F938F939F93EF93FF9307
:10043000E0914B01F0914C018081E0915101F091EC
:10044000520182FD1BC09081809154018F5F8F7398
:1004500020915501821741F0E0915401F0E0E55CF4
:10046000FE4F958F80935401FF91EF919F918F9153
:100470002F910F900FBE0F901F9018958081F4CF91
:10048000CF93DF93CDB7DEB7A1970FB6F894DEBF59
:100490000FBECDBF789484B5826084BD84B5816081
:1004A00084BD85B5826085BD85B5816085BD80913F
:1004B0006E00816080936E001092810080918100B7
:1004C00082608093810080918100816080938100AF
:1004D000809180008160809380008091B100846071
:1004E0008093B1008091B00081608093B0008091D2
:1004F0007A00846080937A0080917A008260809391
:100500007A0080917A00816080937A0080917A00ED
:10051000806880937A001092C100E0914B01F091C5
:100520004C0182E08083E0914701F0914801108204
:10053000E0914901F0914A018FEC808310925301C0
:10054000E0914F01F091500186E08083E0914D01F0
:10055000F0914E01808180618083E0914D01F091A6
:100560004E01808188608083E0914D01F0914E01C1
:10057000808180688083E0914D01F0914E018081FF
:100580008F7D80839AE0492E512C612C712C20E0C4
:10059000222E20E0322E0E94AB036B017C0186E10B
:1005A00091E00E949101C701B6012BE030E040E0EC
:1005B00050E00E9403049B01AC012C5E3F4F4F4F63
:1005C0005F4F19A28E010F5D1F4FCA01B901A30130
:1005D00092010E943504605DF80162938F0121153C
:1005E00031054105510589F7309719F0CF010E9477
:1005F00091018CE291E00E9491018EE291E00E94D3
:1006000091010E945F004B015C0188E8C82E83E1E4
:10061000D82EE12CF12C0E945F00681979098A0913
:100620009B09683E734081059105A8F3F1E0CF1A5C
:10063000D108E108F10828EE820E23E0921EA11CE9
:10064000B11CC114D104E104F10429F721143104CF
:1006500009F4A1CF0E94EE00882309F49CCF0E94E8
:10066000000099CFEBE3F1E01382128288EE93E071
:10067000A0E0B0E084839583A683B78388E091E00F
:100680009183808385EC90E09587848784EC90E06B
:100690009787868780EC90E0918B808B81EC90E04F
:1006A000938B828B82EC90E0958B848B86EC90E030
:1006B000978B868B118E128E138E148E08958F92C7
:1006C0009F92AF92BF92CF92DF92EF92FF92CF9321
:1006D000DF93EC01688179818A819B8161157105C5
:1006E0008105910521F464E279ED8BE597E02DE138
:1006F00033EF41E050E00E94030449015A019B019D
:10070000AC01A7EAB1E40E9422046B017C01ACEECB
:10071000B4EFA50194010E943004C60ED71EE81E56
:10072000F91EF7FE06C081E0C81AD108E10880E88A
:10073000F80AC882D982EA82FB82C701B6019F7794
:10074000DF91CF91FF90EF90DF90CF90BF90AF906F
:100750009F908F9008958F929F92AF92BF92CF9269
:10076000DF92EF92FF926091000170910101809100
:10077000020190910301611571058105910521F434
:1007800064E279ED8BE597E02DE133EF41E050E055
:100790000E94030449015A019B01AC01A7EAB1E49C
:1007A0000E9422046B017C01ACEEB4EFA501940120
:1007B0000E943004C60ED71EE81EF91EF7FE06C0C2
:1007C00081E0C81AD108E10880E8F80AC092000167
:1007D000D0920101E0920201F0920301C701B6013B
:1007E0009F77FF90EF90DF90CF90BF90AF909F905A
:1007F0008F9008956093000170930101809302012E
:10080000909303010895052E97FB1EF400940E9417
:100810001A0457FD07D00E94350407FC03D04EF49C
:100820000C941A0450954095309521953F4F4F4FA9
:100830005F4F089590958095709561957F4F8F4F8C
:100840009F4F08950E945704A59F900DB49F900D4F
:10085000A49F800D911D11240895B7FF0C942204CC
:100860000E942204821B930B0895A1E21A2EAA1B58
:10087000BB1BFD010DC0AA1FBB1FEE1FFF1FA21750
:10088000B307E407F50720F0A21BB30BE40BF50B4D
:10089000661F771F881F991F1A9469F760957095D6
:1008A000809590959B01AC01BD01CF010895A29F59
:1008B000B001B39FC001A39F700D811D1124911D34
:1008C000B29F700D811D1124911D0895EE0FFF1F21
:0C08D0000590F491E02D0994F894FFCFFE
:1008DC00010000000000000024018400B10071013F
:1008EC00E200C000D4007B2274656D706572617487
:1008FC007572655F76616C7565223A007D000D0A34
:02090C000000E9
:00000001FF
